{
  "_format": "hh-sol-artifact-1",
  "contractName": "NofeeOperatorLike",
  "sourceName": "contracts/NofeeOperatorLike.sol",
  "abi": [
    {
      "anonymous": false,
      "inputs": [
        {
          "indexed": true,
          "internalType": "bytes32",
          "name": "poolId",
          "type": "bytes32"
        },
        {
          "indexed": true,
          "internalType": "address",
          "name": "provider",
          "type": "address"
        },
        {
          "indexed": false,
          "internalType": "uint256",
          "name": "liquidityBurned",
          "type": "uint256"
        },
        {
          "indexed": false,
          "internalType": "uint256",
          "name": "amount0Out",
          "type": "uint256"
        },
        {
          "indexed": false,
          "internalType": "uint256",
          "name": "amount1Out",
          "type": "uint256"
        }
      ],
      "name": "LiquidityBurned",
      "type": "event"
    },
    {
      "anonymous": false,
      "inputs": [
        {
          "indexed": true,
          "internalType": "bytes32",
          "name": "poolId",
          "type": "bytes32"
        },
        {
          "indexed": true,
          "internalType": "address",
          "name": "provider",
          "type": "address"
        },
        {
          "indexed": false,
          "internalType": "uint256",
          "name": "amount0",
          "type": "uint256"
        },
        {
          "indexed": false,
          "internalType": "uint256",
          "name": "amount1",
          "type": "uint256"
        },
        {
          "indexed": false,
          "internalType": "uint256",
          "name": "liquidityMinted",
          "type": "uint256"
        }
      ],
      "name": "LiquidityMinted",
      "type": "event"
    },
    {
      "anonymous": false,
      "inputs": [
        {
          "indexed": true,
          "internalType": "bytes32",
          "name": "poolId",
          "type": "bytes32"
        },
        {
          "indexed": true,
          "internalType": "address",
          "name": "token0",
          "type": "address"
        },
        {
          "indexed": true,
          "internalType": "address",
          "name": "token1",
          "type": "address"
        },
        {
          "indexed": false,
          "internalType": "uint24",
          "name": "feeBps",
          "type": "uint24"
        },
        {
          "indexed": false,
          "internalType": "uint160",
          "name": "initialPriceX96",
          "type": "uint160"
        }
      ],
      "name": "PoolInitialized",
      "type": "event"
    },
    {
      "anonymous": false,
      "inputs": [
        {
          "indexed": true,
          "internalType": "bytes32",
          "name": "poolId",
          "type": "bytes32"
        },
        {
          "indexed": true,
          "internalType": "address",
          "name": "trader",
          "type": "address"
        },
        {
          "indexed": false,
          "internalType": "bool",
          "name": "zeroForOne",
          "type": "bool"
        },
        {
          "indexed": false,
          "internalType": "uint256",
          "name": "amountIn",
          "type": "uint256"
        },
        {
          "indexed": false,
          "internalType": "uint256",
          "name": "amountOut",
          "type": "uint256"
        },
        {
          "indexed": false,
          "internalType": "uint256",
          "name": "minAmountOut",
          "type": "uint256"
        },
        {
          "indexed": false,
          "internalType": "uint256",
          "name": "slippageBps",
          "type": "uint256"
        }
      ],
      "name": "SwapExecuted",
      "type": "event"
    },
    {
      "inputs": [
        {
          "internalType": "bytes32",
          "name": "poolId",
          "type": "bytes32"
        },
        {
          "internalType": "uint256",
          "name": "liquidityToBurn",
          "type": "uint256"
        }
      ],
      "name": "burnLiquidity",
      "outputs": [
        {
          "internalType": "uint256",
          "name": "amount0Out",
          "type": "uint256"
        },
        {
          "internalType": "uint256",
          "name": "amount1Out",
          "type": "uint256"
        }
      ],
      "stateMutability": "nonpayable",
      "type": "function"
    },
    {
      "inputs": [
        {
          "internalType": "address",
          "name": "tokenA",
          "type": "address"
        },
        {
          "internalType": "address",
          "name": "tokenB",
          "type": "address"
        },
        {
          "internalType": "uint24",
          "name": "feeBps",
          "type": "uint24"
        }
      ],
      "name": "getPoolId",
      "outputs": [
        {
          "internalType": "bytes32",
          "name": "",
          "type": "bytes32"
        }
      ],
      "stateMutability": "pure",
      "type": "function"
    },
    {
      "inputs": [
        {
          "internalType": "bytes32",
          "name": "poolId",
          "type": "bytes32"
        }
      ],
      "name": "getPoolState",
      "outputs": [
        {
          "components": [
            {
              "internalType": "address",
              "name": "token0",
              "type": "address"
            },
            {
              "internalType": "address",
              "name": "token1",
              "type": "address"
            },
            {
              "internalType": "uint256",
              "name": "reserve0",
              "type": "uint256"
            },
            {
              "internalType": "uint256",
              "name": "reserve1",
              "type": "uint256"
            },
            {
              "internalType": "uint24",
              "name": "feeBps",
              "type": "uint24"
            },
            {
              "internalType": "uint160",
              "name": "initialPriceX96",
              "type": "uint160"
            },
            {
              "internalType": "uint256",
              "name": "totalLiquidity",
              "type": "uint256"
            },
            {
              "internalType": "bool",
              "name": "initialized",
              "type": "bool"
            }
          ],
          "internalType": "struct NofeeOperatorLike.Pool",
          "name": "",
          "type": "tuple"
        }
      ],
      "stateMutability": "view",
      "type": "function"
    },
    {
      "inputs": [
        {
          "internalType": "bytes32",
          "name": "poolId",
          "type": "bytes32"
        },
        {
          "internalType": "address",
          "name": "user",
          "type": "address"
        }
      ],
      "name": "getPosition",
      "outputs": [
        {
          "components": [
            {
              "internalType": "uint256",
              "name": "liquidity",
              "type": "uint256"
            },
            {
              "internalType": "uint256",
              "name": "token0Share",
              "type": "uint256"
            },
            {
              "internalType": "uint256",
              "name": "token1Share",
              "type": "uint256"
            }
          ],
          "internalType": "struct NofeeOperatorLike.Position",
          "name": "",
          "type": "tuple"
        }
      ],
      "stateMutability": "view",
      "type": "function"
    },
    {
      "inputs": [
        {
          "internalType": "address",
          "name": "tokenA",
          "type": "address"
        },
        {
          "internalType": "address",
          "name": "tokenB",
          "type": "address"
        },
        {
          "internalType": "uint24",
          "name": "feeBps",
          "type": "uint24"
        },
        {
          "internalType": "uint160",
          "name": "initialPriceX96",
          "type": "uint160"
        }
      ],
      "name": "initializePool",
      "outputs": [
        {
          "internalType": "bytes32",
          "name": "poolId",
          "type": "bytes32"
        }
      ],
      "stateMutability": "nonpayable",
      "type": "function"
    },
    {
      "inputs": [
        {
          "internalType": "bytes32",
          "name": "poolId",
          "type": "bytes32"
        },
        {
          "internalType": "uint256",
          "name": "amount0",
          "type": "uint256"
        },
        {
          "internalType": "uint256",
          "name": "amount1",
          "type": "uint256"
        }
      ],
      "name": "mintLiquidity",
      "outputs": [
        {
          "internalType": "uint256",
          "name": "liquidityMinted",
          "type": "uint256"
        }
      ],
      "stateMutability": "nonpayable",
      "type": "function"
    },
    {
      "inputs": [
        {
          "internalType": "bytes32",
          "name": "",
          "type": "bytes32"
        }
      ],
      "name": "pools",
      "outputs": [
        {
          "internalType": "address",
          "name": "token0",
          "type": "address"
        },
        {
          "internalType": "address",
          "name": "token1",
          "type": "address"
        },
        {
          "internalType": "uint256",
          "name": "reserve0",
          "type": "uint256"
        },
        {
          "internalType": "uint256",
          "name": "reserve1",
          "type": "uint256"
        },
        {
          "internalType": "uint24",
          "name": "feeBps",
          "type": "uint24"
        },
        {
          "internalType": "uint160",
          "name": "initialPriceX96",
          "type": "uint160"
        },
        {
          "internalType": "uint256",
          "name": "totalLiquidity",
          "type": "uint256"
        },
        {
          "internalType": "bool",
          "name": "initialized",
          "type": "bool"
        }
      ],
      "stateMutability": "view",
      "type": "function"
    },
    {
      "inputs": [
        {
          "internalType": "bytes32",
          "name": "",
          "type": "bytes32"
        },
        {
          "internalType": "address",
          "name": "",
          "type": "address"
        }
      ],
      "name": "positions",
      "outputs": [
        {
          "internalType": "uint256",
          "name": "liquidity",
          "type": "uint256"
        },
        {
          "internalType": "uint256",
          "name": "token0Share",
          "type": "uint256"
        },
        {
          "internalType": "uint256",
          "name": "token1Share",
          "type": "uint256"
        }
      ],
      "stateMutability": "view",
      "type": "function"
    },
    {
      "inputs": [
        {
          "internalType": "bytes32",
          "name": "poolId",
          "type": "bytes32"
        },
        {
          "internalType": "bool",
          "name": "zeroForOne",
          "type": "bool"
        },
        {
          "internalType": "uint256",
          "name": "amountIn",
          "type": "uint256"
        }
      ],
      "name": "quoteSwap",
      "outputs": [
        {
          "internalType": "uint256",
          "name": "amountOut",
          "type": "uint256"
        },
        {
          "internalType": "uint256",
          "name": "priceImpactBps",
          "type": "uint256"
        }
      ],
      "stateMutability": "view",
      "type": "function"
    },
    {
      "inputs": [
        {
          "internalType": "bytes32",
          "name": "poolId",
          "type": "bytes32"
        },
        {
          "internalType": "bool",
          "name": "zeroForOne",
          "type": "bool"
        },
        {
          "internalType": "uint256",
          "name": "amountIn",
          "type": "uint256"
        },
        {
          "internalType": "uint256",
          "name": "minAmountOut",
          "type": "uint256"
        },
        {
          "internalType": "uint256",
          "name": "slippageBps",
          "type": "uint256"
        }
      ],
      "name": "swap",
      "outputs": [
        {
          "internalType": "uint256",
          "name": "amountOut",
          "type": "uint256"
        }
      ],
      "stateMutability": "nonpayable",
      "type": "function"
    }
  ],
  "bytecode": "0x608060405234801561001057600080fd5b506114b0806100206000396000f3fe608060405234801561001057600080fd5b506004361061009e5760003560e01c80635c388821116100665780635c388821146101685780636fb1461a1461019d5780638d670fe4146101b0578063b5217bb4146101c3578063d595408a1461028157600080fd5b806321e04620146100a357806329d88594146100c95780632dbde84f1461011a5780633a1113531461012d5780633e17889514610155575b600080fd5b6100b66100b13660046111a2565b6103cd565b6040519081526020015b60405180910390f35b6100ff6100d73660046111e6565b6001602081815260009384526040808520909152918352912080549181015460029091015483565b604080519384526020840192909252908201526060016100c0565b6100b6610128366004611224565b610713565b61014061013b36600461126c565b6109eb565b604080519283526020830191909152016100c0565b6101406101633660046112a4565b610bc2565b61017b6101763660046111e6565b610e89565b60408051825181526020808401519082015291810151908201526060016100c0565b6100b66101ab3660046112de565b610efa565b6100b66101be366004611338565b6110bf565b61022c6101d136600461137f565b60006020819052908152604090208054600182015460028301546003840154600485015460058601546006909601546001600160a01b0395861696948616959394929362ffffff831693630100000090930416919060ff1688565b604080516001600160a01b03998a1681529789166020890152870195909552606086019390935262ffffff90911660808501529390931660a083015260c082019290925290151560e0820152610100016100c0565b61035761028f36600461137f565b6040805161010081018252600080825260208201819052918101829052606081018290526080810182905260a0810182905260c0810182905260e0810191909152506000908152602081815260409182902082516101008101845281546001600160a01b039081168252600183015481169382019390935260028201549381019390935260038101546060840152600481015462ffffff811660808501526301000000900490911660a0830152600581015460c08301526006015460ff16151560e082015290565b6040516100c0919060006101008201905060018060a01b03808451168352806020850151166020840152604084015160408401526060840151606084015262ffffff60808501511660808401528060a08501511660a08401525060c083015160c083015260e0830151151560e083015292915050565b6000838152602081905260408120600681015460ff166104085760405162461bcd60e51b81526004016103ff90611398565b60405180910390fd5b6000841180156104185750600083115b6104565760405162461bcd60e51b815260206004820152600f60248201526e696e76616c69642d616d6f756e747360881b60448201526064016103ff565b80546040516323b872dd60e01b8152336004820152306024820152604481018690526001600160a01b03909116906323b872dd906064016020604051808303816000875af11580156104ac573d6000803e3d6000fd5b505050506040513d601f19601f820116820180604052508101906104d091906113be565b5060018101546040516323b872dd60e01b8152336004820152306024820152604481018590526001600160a01b03909116906323b872dd906064016020604051808303816000875af115801561052a573d6000803e3d6000fd5b505050506040513d601f19601f8201168201806040525081019061054e91906113be565b5080600501546000036105745761056d61056884866113f8565b611138565b91506105ce565b6000816002015482600501548661058b91906113f8565b610595919061140f565b9050600082600301548360050154866105ae91906113f8565b6105b8919061140f565b90508082106105c757806105c9565b815b935050505b6000821161060e5760405162461bcd60e51b815260206004820152600d60248201526c6c6f772d6c697175696469747960981b60448201526064016103ff565b838160020160008282546106229190611431565b925050819055508281600301600082825461063d9190611431565b92505081905550818160050160008282546106589190611431565b90915550506000858152600160209081526040808320338452909152812080549091849183919061068a908490611431565b92505081905550848160010160008282546106a59190611431565b92505081905550838160020160008282546106c09190611431565b90915550506040805186815260208101869052908101849052339087907f1d3e465132e00ce3c1a5de4b1c3bec982105d1f6704c082efd09d22a88a305da9060600160405180910390a350509392505050565b6000858152602081905260408120600681015460ff166107455760405162461bcd60e51b81526004016103ff90611398565b6107d083111561078b5760405162461bcd60e51b81526020600482015260116024820152700e6d8d2e0e0c2ceca5ae8dede5ad0d2ced607b1b60448201526064016103ff565b6107968787876109eb565b509150838210156107da5760405162461bcd60e51b815260206004820152600e60248201526d736c6970706167652d636865636b60901b60448201526064016103ff565b6000866107f45760018201546001600160a01b0316610800565b81546001600160a01b03165b90506000876108195782546001600160a01b0316610828565b60018301546001600160a01b03165b6040516323b872dd60e01b8152336004820152306024820152604481018990529091506001600160a01b038316906323b872dd906064016020604051808303816000875af115801561087e573d6000803e3d6000fd5b505050506040513d601f19601f820116820180604052508101906108a291906113be565b5060405163a9059cbb60e01b8152336004820152602481018590526001600160a01b0382169063a9059cbb906044016020604051808303816000875af11580156108f0573d6000803e3d6000fd5b505050506040513d601f19601f8201168201806040525081019061091491906113be565b508715610955578683600201600082825461092f9190611431565b925050819055508383600301600082825461094a9190611444565b9091555061098a9050565b868360030160008282546109699190611431565b92505081905550838360020160008282546109849190611444565b90915550505b60408051891515815260208101899052908101859052606081018790526080810186905233908a907f93512b618404f919c8bcc814089efa143c31c139eec3aeac13ee9dc8778398599060a00160405180910390a350505095945050505050565b6000838152602081905260408120600681015482919060ff16610a205760405162461bcd60e51b81526004016103ff90611398565b60008411610a5a5760405162461bcd60e51b81526020600482015260076024820152663d32b93796b4b760c91b60448201526064016103ff565b60008086610a715782600301548360020154610a7c565b826002015483600301545b91509150600082118015610a905750600081115b610ac95760405162461bcd60e51b815260206004820152600a602482015269195b5c1d1e4b5c1bdbdb60b21b60448201526064016103ff565b6004830154600090610ae29062ffffff16612710611457565b610af19062ffffff16886113f8565b90506000610aff83836113f8565b9050600082610b10866127106113f8565b610b1a9190611431565b9050610b26818361140f565b9750600085610b3d86670de0b6b3a76400006113f8565b610b47919061140f565b90506000610b558b88611431565b610b5f8b88611444565b610b7190670de0b6b3a76400006113f8565b610b7b919061140f565b905080821115610bad5781610b908282611444565b610b9c906127106113f8565b610ba6919061140f565b9850610bb2565b600098505b5050505050505050935093915050565b6000828152602081905260408120600681015482919060ff16610bf75760405162461bcd60e51b81526004016103ff90611398565b600085815260016020908152604080832033845290915290208415801590610c20575080548511155b610c5c5760405162461bcd60e51b815260206004820152600d60248201526c6261642d6c697175696469747960981b60448201526064016103ff565b60058201546002830154610c7090876113f8565b610c7a919061140f565b93508160050154826003015486610c9191906113f8565b610c9b919061140f565b9250600084118015610cad5750600083115b610ce45760405162461bcd60e51b8152602060048201526008602482015267726f756e64696e6760c01b60448201526064016103ff565b84816000016000828254610cf89190611444565b9250508190555084826005016000828254610d139190611444565b9250508190555083826002016000828254610d2e9190611444565b9250508190555082826003016000828254610d499190611444565b9091555050815460405163a9059cbb60e01b8152336004820152602481018690526001600160a01b039091169063a9059cbb906044016020604051808303816000875af1158015610d9e573d6000803e3d6000fd5b505050506040513d601f19601f82011682018060405250810190610dc291906113be565b50600182015460405163a9059cbb60e01b8152336004820152602481018590526001600160a01b039091169063a9059cbb906044016020604051808303816000875af1158015610e16573d6000803e3d6000fd5b505050506040513d601f19601f82011682018060405250810190610e3a91906113be565b506040805186815260208101869052908101849052339087907f61e5aad8de7b2c281a9f45e646e08a2bd261918a003a64f299012f65a81796149060600160405180910390a350509250929050565b610ead60405180606001604052806000815260200160008152602001600081525090565b5060008281526001602081815260408084206001600160a01b0386168552825292839020835160608101855281548152928101549183019190915260020154918101919091525b92915050565b6000836001600160a01b0316856001600160a01b031603610f4a5760405162461bcd60e51b815260206004820152600a60248201526939b0b6b296ba37b5b2b760b11b60448201526064016103ff565b6103e88362ffffff161115610f8c5760405162461bcd60e51b81526020600482015260086024820152670cccaca5ad0d2ced60c31b60448201526064016103ff565b610f978585856110bf565b600081815260208190526040902060068101549192509060ff1615610fed5760405162461bcd60e51b815260206004820152600c60248201526b185b1c9958591e4b5a5b9a5d60a21b60448201526064016103ff565b846001600160a01b0316866001600160a01b03161061100d578486611010565b85855b600183810180546001600160a01b03199081166001600160a01b03948516908117909255855416938316938417855560048501805462ffffff8a166001600160b81b031990911681176301000000958a169586021790915560068601805460ff1916909317909255604080519283526020830193909352929185917f544674c6dee69d3cc0ebc986ca94f3262ff4783adffb5bb9f5b57a66e9c81997910160405180910390a450949350505050565b6000806000846001600160a01b0316866001600160a01b0316106110e45784866110e7565b85855b604080516001600160a01b03808516602083015283169181019190915262ffffff87166060820152919350915060800160405160208183030381529060405280519060200120925050509392505050565b60008160000361114a57506000919050565b60006002611159846001611431565b611163919061140f565b90508291505b8181101561119c57905080600281611181818661140f565b61118b9190611431565b611195919061140f565b9050611169565b50919050565b6000806000606084860312156111b757600080fd5b505081359360208301359350604090920135919050565b6001600160a01b03811681146111e357600080fd5b50565b600080604083850312156111f957600080fd5b82359150602083013561120b816111ce565b809150509250929050565b80151581146111e357600080fd5b600080600080600060a0868803121561123c57600080fd5b85359450602086013561124e81611216565b94979496505050506040830135926060810135926080909101359150565b60008060006060848603121561128157600080fd5b83359250602084013561129381611216565b929592945050506040919091013590565b600080604083850312156112b757600080fd5b50508035926020909101359150565b803562ffffff811681146112d957600080fd5b919050565b600080600080608085870312156112f457600080fd5b84356112ff816111ce565b9350602085013561130f816111ce565b925061131d604086016112c6565b9150606085013561132d816111ce565b939692955090935050565b60008060006060848603121561134d57600080fd5b8335611358816111ce565b92506020840135611368816111ce565b9150611376604085016112c6565b90509250925092565b60006020828403121561139157600080fd5b5035919050565b6020808252600c908201526b706f6f6c2d6d697373696e6760a01b604082015260600190565b6000602082840312156113d057600080fd5b81516113db81611216565b9392505050565b634e487b7160e01b600052601160045260246000fd5b8082028115828204841417610ef457610ef46113e2565b60008261142c57634e487b7160e01b600052601260045260246000fd5b500490565b80820180821115610ef457610ef46113e2565b81810381811115610ef457610ef46113e2565b62ffffff828116828216039080821115611473576114736113e2565b509291505056fea2646970667358221220b78616f0f0befff4600ff5e66a5abb0287e5a8a09c126157137b8c201ca7d43564736f6c63430008180033",
  "linkReferences": {},
  "deployedLinkReferences": {}
}